:020000020000FC
:100000000FEF0DBF08E00EBF00E80093610004E0B1
:10001000009361000E94BA0000E00093C10000E07C
:100020000AB90BB90FEF0AB900E00BB90FEF07B926
:1000300000E008B900E004B90FEF05B92FEFA0E028
:10004000B1E07E306D79335B5F707F7B771F4E3D13
:100050004F47F0E0E2E4B1E0A0E051E165915A954C
:10006000503011F06D93FACFA0E0B1E050E070E0B5
:1000700030E010E080E090E015B310FD1BC003B14C
:100080000217D1F30E949A0003B10217A9F30E944C
:100090009A0003B1021781F30E9465000E9451008B
:1000A000EBCF891709F00895349A04E606BD30E0D5
:1000B00070E00895A89A14E616BD73957436E1F6BB
:1000C00077270E94760038B9D7CF20274FEF4027F7
:1000D00024234FEF242720FD0E947E00202F21FDA6
:1000E0000E948C00202F5BB9202F08953F3019F01B
:1000F00033959395089530E090E008950F930FE0C5
:10010000051721F05D910F91839508950F915EE79A
:10011000A0E0B1E080E008950F9300E0051721F022
:100120005E910F918A9508950F9157E4AFE0B1E089
:100130008FEF08954F9340E043954030E9F740E05A
:1001400043954030E9F743954030E9F74395403017
:10015000E9F743954030E9F743954030E9F7439597
:100160004030E9F743954030E9F743954030E9F7EF
:0E0170004F91089503E005BD04E606BD089515
:00000001FF
