:020000020000FC
:100000000FEF0DBF08E00EBF00E00093C1000093AA
:10001000C0000093C2000093C5000093C40000E03C
:100020000AB90BB90FEF0AB900E00BB900E004B947
:100030000FEF05B92FEFA0E0B1E07E306D79335BB3
:100040005F707F7B771F4E3D4F47F0E0EAE3B1E002
:10005000A0E051E165915A95503011F06D93FACFBF
:10006000A0E0B1E050E003B10217E9F303B10217D9
:10007000D1F303B10217B9F320274FEF4027242310
:100080004FEF242720FD0E944D00202F21FD0E94CC
:100090005A00202F5BB9202FE6CF0F930FE00517F2
:1000A00019F05D910F9108950F915EE7A0E0B1E026
:1000B0006C9108950F9300E0051719F05E910F9170
:1000C00008950F9157E4AFE0B1E008954F9340E0F9
:1000D00043954030E9F740E043954030E9F74395D8
:1000E0004030E9F743954030E9F743954030E9F770
:1000F00043954030E9F743954030E9F74395403068
:0C010000E9F743954030E9F74F9108956E
:00000001FF
